{
  "_format": "hh-sol-artifact-1",
  "contractName": "SpotifyMarketplace",
  "sourceName": "contracts/SpotifyMarketplace.sol",
  "abi": [
    {
      "anonymous": false,
      "inputs": [
        {
          "indexed": true,
          "internalType": "address",
          "name": "owner",
          "type": "address"
        },
        {
          "indexed": true,
          "internalType": "address",
          "name": "approved",
          "type": "address"
        },
        {
          "indexed": true,
          "internalType": "uint256",
          "name": "tokenId",
          "type": "uint256"
        }
      ],
      "name": "Approval",
      "type": "event"
    },
    {
      "anonymous": false,
      "inputs": [
        {
          "indexed": true,
          "internalType": "address",
          "name": "owner",
          "type": "address"
        },
        {
          "indexed": true,
          "internalType": "address",
          "name": "operator",
          "type": "address"
        },
        {
          "indexed": false,
          "internalType": "bool",
          "name": "approved",
          "type": "bool"
        }
      ],
      "name": "ApprovalForAll",
      "type": "event"
    },
    {
      "anonymous": false,
      "inputs": [
        {
          "indexed": true,
          "internalType": "uint256",
          "name": "songId",
          "type": "uint256"
        },
        {
          "indexed": true,
          "internalType": "address",
          "name": "seller",
          "type": "address"
        },
        {
          "indexed": false,
          "internalType": "address",
          "name": "buyer",
          "type": "address"
        },
        {
          "indexed": false,
          "internalType": "uint256",
          "name": "price",
          "type": "uint256"
        }
      ],
      "name": "BuySong",
      "type": "event"
    },
    {
      "anonymous": false,
      "inputs": [
        {
          "indexed": true,
          "internalType": "address",
          "name": "previousOwner",
          "type": "address"
        },
        {
          "indexed": true,
          "internalType": "address",
          "name": "newOwner",
          "type": "address"
        }
      ],
      "name": "OwnershipTransferred",
      "type": "event"
    },
    {
      "anonymous": false,
      "inputs": [
        {
          "indexed": false,
          "internalType": "uint256",
          "name": "id",
          "type": "uint256"
        },
        {
          "indexed": false,
          "internalType": "string",
          "name": "title",
          "type": "string"
        },
        {
          "indexed": false,
          "internalType": "string",
          "name": "subtitle",
          "type": "string"
        },
        {
          "indexed": false,
          "internalType": "string",
          "name": "musicHash",
          "type": "string"
        },
        {
          "indexed": false,
          "internalType": "string",
          "name": "imageHash",
          "type": "string"
        },
        {
          "indexed": false,
          "internalType": "address",
          "name": "artist",
          "type": "address"
        },
        {
          "indexed": false,
          "internalType": "address",
          "name": "seller",
          "type": "address"
        },
        {
          "indexed": false,
          "internalType": "uint256",
          "name": "royaltyFee",
          "type": "uint256"
        }
      ],
      "name": "SongCreated",
      "type": "event"
    },
    {
      "anonymous": false,
      "inputs": [
        {
          "indexed": true,
          "internalType": "uint256",
          "name": "songId",
          "type": "uint256"
        },
        {
          "indexed": true,
          "internalType": "address",
          "name": "seller",
          "type": "address"
        },
        {
          "indexed": false,
          "internalType": "uint256",
          "name": "price",
          "type": "uint256"
        }
      ],
      "name": "SongReListed",
      "type": "event"
    },
    {
      "anonymous": false,
      "inputs": [
        {
          "indexed": true,
          "internalType": "address",
          "name": "from",
          "type": "address"
        },
        {
          "indexed": true,
          "internalType": "address",
          "name": "to",
          "type": "address"
        },
        {
          "indexed": true,
          "internalType": "uint256",
          "name": "tokenId",
          "type": "uint256"
        }
      ],
      "name": "Transfer",
      "type": "event"
    },
    {
      "inputs": [
        {
          "internalType": "address",
          "name": "to",
          "type": "address"
        },
        {
          "internalType": "uint256",
          "name": "tokenId",
          "type": "uint256"
        }
      ],
      "name": "approve",
      "outputs": [],
      "stateMutability": "nonpayable",
      "type": "function"
    },
    {
      "inputs": [
        {
          "internalType": "address",
          "name": "owner",
          "type": "address"
        }
      ],
      "name": "balanceOf",
      "outputs": [
        {
          "internalType": "uint256",
          "name": "",
          "type": "uint256"
        }
      ],
      "stateMutability": "view",
      "type": "function"
    },
    {
      "inputs": [
        {
          "internalType": "uint256",
          "name": "_tokenId",
          "type": "uint256"
        }
      ],
      "name": "buySong",
      "outputs": [],
      "stateMutability": "payable",
      "type": "function"
    },
    {
      "inputs": [],
      "name": "contractName",
      "outputs": [
        {
          "internalType": "string",
          "name": "",
          "type": "string"
        }
      ],
      "stateMutability": "view",
      "type": "function"
    },
    {
      "inputs": [],
      "name": "getAllListedSongs",
      "outputs": [
        {
          "components": [
            {
              "internalType": "uint256",
              "name": "id",
              "type": "uint256"
            },
            {
              "internalType": "string",
              "name": "title",
              "type": "string"
            },
            {
              "internalType": "string",
              "name": "subtitle",
              "type": "string"
            },
            {
              "internalType": "string",
              "name": "musicHash",
              "type": "string"
            },
            {
              "internalType": "string",
              "name": "imageHash",
              "type": "string"
            },
            {
              "internalType": "address",
              "name": "artist",
              "type": "address"
            },
            {
              "internalType": "address",
              "name": "seller",
              "type": "address"
            },
            {
              "internalType": "uint256",
              "name": "price",
              "type": "uint256"
            },
            {
              "internalType": "uint256",
              "name": "royaltyFee",
              "type": "uint256"
            }
          ],
          "internalType": "struct SpotifyMarketplace.Song[]",
          "name": "",
          "type": "tuple[]"
        }
      ],
      "stateMutability": "view",
      "type": "function"
    },
    {
      "inputs": [
        {
          "internalType": "uint256",
          "name": "tokenId",
          "type": "uint256"
        }
      ],
      "name": "getApproved",
      "outputs": [
        {
          "internalType": "address",
          "name": "",
          "type": "address"
        }
      ],
      "stateMutability": "view",
      "type": "function"
    },
    {
      "inputs": [],
      "name": "getOwnedSongs",
      "outputs": [
        {
          "components": [
            {
              "internalType": "uint256",
              "name": "id",
              "type": "uint256"
            },
            {
              "internalType": "string",
              "name": "title",
              "type": "string"
            },
            {
              "internalType": "string",
              "name": "subtitle",
              "type": "string"
            },
            {
              "internalType": "string",
              "name": "musicHash",
              "type": "string"
            },
            {
              "internalType": "string",
              "name": "imageHash",
              "type": "string"
            },
            {
              "internalType": "address",
              "name": "artist",
              "type": "address"
            },
            {
              "internalType": "address",
              "name": "seller",
              "type": "address"
            },
            {
              "internalType": "uint256",
              "name": "price",
              "type": "uint256"
            },
            {
              "internalType": "uint256",
              "name": "royaltyFee",
              "type": "uint256"
            }
          ],
          "internalType": "struct SpotifyMarketplace.Song[]",
          "name": "",
          "type": "tuple[]"
        }
      ],
      "stateMutability": "view",
      "type": "function"
    },
    {
      "inputs": [
        {
          "internalType": "address",
          "name": "owner",
          "type": "address"
        },
        {
          "internalType": "address",
          "name": "operator",
          "type": "address"
        }
      ],
      "name": "isApprovedForAll",
      "outputs": [
        {
          "internalType": "bool",
          "name": "",
          "type": "bool"
        }
      ],
      "stateMutability": "view",
      "type": "function"
    },
    {
      "inputs": [
        {
          "internalType": "uint256",
          "name": "_tokenId",
          "type": "uint256"
        },
        {
          "internalType": "uint256",
          "name": "_price",
          "type": "uint256"
        }
      ],
      "name": "listSong",
      "outputs": [],
      "stateMutability": "payable",
      "type": "function"
    },
    {
      "inputs": [],
      "name": "name",
      "outputs": [
        {
          "internalType": "string",
          "name": "",
          "type": "string"
        }
      ],
      "stateMutability": "view",
      "type": "function"
    },
    {
      "inputs": [],
      "name": "owner",
      "outputs": [
        {
          "internalType": "address",
          "name": "",
          "type": "address"
        }
      ],
      "stateMutability": "view",
      "type": "function"
    },
    {
      "inputs": [
        {
          "internalType": "uint256",
          "name": "tokenId",
          "type": "uint256"
        }
      ],
      "name": "ownerOf",
      "outputs": [
        {
          "internalType": "address",
          "name": "",
          "type": "address"
        }
      ],
      "stateMutability": "view",
      "type": "function"
    },
    {
      "inputs": [],
      "name": "renounceOwnership",
      "outputs": [],
      "stateMutability": "nonpayable",
      "type": "function"
    },
    {
      "inputs": [
        {
          "internalType": "address",
          "name": "from",
          "type": "address"
        },
        {
          "internalType": "address",
          "name": "to",
          "type": "address"
        },
        {
          "internalType": "uint256",
          "name": "tokenId",
          "type": "uint256"
        }
      ],
      "name": "safeTransferFrom",
      "outputs": [],
      "stateMutability": "nonpayable",
      "type": "function"
    },
    {
      "inputs": [
        {
          "internalType": "address",
          "name": "from",
          "type": "address"
        },
        {
          "internalType": "address",
          "name": "to",
          "type": "address"
        },
        {
          "internalType": "uint256",
          "name": "tokenId",
          "type": "uint256"
        },
        {
          "internalType": "bytes",
          "name": "_data",
          "type": "bytes"
        }
      ],
      "name": "safeTransferFrom",
      "outputs": [],
      "stateMutability": "nonpayable",
      "type": "function"
    },
    {
      "inputs": [
        {
          "internalType": "address",
          "name": "operator",
          "type": "address"
        },
        {
          "internalType": "bool",
          "name": "approved",
          "type": "bool"
        }
      ],
      "name": "setApprovalForAll",
      "outputs": [],
      "stateMutability": "nonpayable",
      "type": "function"
    },
    {
      "inputs": [],
      "name": "songCount",
      "outputs": [
        {
          "internalType": "uint256",
          "name": "",
          "type": "uint256"
        }
      ],
      "stateMutability": "view",
      "type": "function"
    },
    {
      "inputs": [
        {
          "internalType": "uint256",
          "name": "",
          "type": "uint256"
        }
      ],
      "name": "songs",
      "outputs": [
        {
          "internalType": "uint256",
          "name": "id",
          "type": "uint256"
        },
        {
          "internalType": "string",
          "name": "title",
          "type": "string"
        },
        {
          "internalType": "string",
          "name": "subtitle",
          "type": "string"
        },
        {
          "internalType": "string",
          "name": "musicHash",
          "type": "string"
        },
        {
          "internalType": "string",
          "name": "imageHash",
          "type": "string"
        },
        {
          "internalType": "address",
          "name": "artist",
          "type": "address"
        },
        {
          "internalType": "address",
          "name": "seller",
          "type": "address"
        },
        {
          "internalType": "uint256",
          "name": "price",
          "type": "uint256"
        },
        {
          "internalType": "uint256",
          "name": "royaltyFee",
          "type": "uint256"
        }
      ],
      "stateMutability": "view",
      "type": "function"
    },
    {
      "inputs": [
        {
          "internalType": "bytes4",
          "name": "interfaceId",
          "type": "bytes4"
        }
      ],
      "name": "supportsInterface",
      "outputs": [
        {
          "internalType": "bool",
          "name": "",
          "type": "bool"
        }
      ],
      "stateMutability": "view",
      "type": "function"
    },
    {
      "inputs": [],
      "name": "symbol",
      "outputs": [
        {
          "internalType": "string",
          "name": "",
          "type": "string"
        }
      ],
      "stateMutability": "view",
      "type": "function"
    },
    {
      "inputs": [
        {
          "internalType": "uint256",
          "name": "tokenId",
          "type": "uint256"
        }
      ],
      "name": "tokenURI",
      "outputs": [
        {
          "internalType": "string",
          "name": "",
          "type": "string"
        }
      ],
      "stateMutability": "view",
      "type": "function"
    },
    {
      "inputs": [
        {
          "internalType": "address",
          "name": "from",
          "type": "address"
        },
        {
          "internalType": "address",
          "name": "to",
          "type": "address"
        },
        {
          "internalType": "uint256",
          "name": "tokenId",
          "type": "uint256"
        }
      ],
      "name": "transferFrom",
      "outputs": [],
      "stateMutability": "nonpayable",
      "type": "function"
    },
    {
      "inputs": [
        {
          "internalType": "address",
          "name": "newOwner",
          "type": "address"
        }
      ],
      "name": "transferOwnership",
      "outputs": [],
      "stateMutability": "nonpayable",
      "type": "function"
    },
    {
      "inputs": [
        {
          "internalType": "string",
          "name": "_title",
          "type": "string"
        },
        {
          "internalType": "string",
          "name": "_subtitle",
          "type": "string"
        },
        {
          "internalType": "string",
          "name": "_musicHash",
          "type": "string"
        },
        {
          "internalType": "string",
          "name": "_imageHash",
          "type": "string"
        },
        {
          "internalType": "uint256",
          "name": "_royaltyFee",
          "type": "uint256"
        }
      ],
      "name": "uploadSong",
      "outputs": [],
      "stateMutability": "nonpayable",
      "type": "function"
    }
  ],
  "bytecode": "0x60806040526040518060400160405280601281526020017f53706f746966794d61726b6574706c61636500000000000000000000000000008152506007908051906020019062000051929190620001f9565b5060006008553480156200006457600080fd5b506040518060400160405280600b81526020017f53706f74696679444150500000000000000000000000000000000000000000008152506040518060400160405280600481526020017f44415050000000000000000000000000000000000000000000000000000000008152508160009080519060200190620000e9929190620001f9565b50806001908051906020019062000102929190620001f9565b50505062000125620001196200012b60201b60201c565b6200013360201b60201c565b6200030e565b600033905090565b6000600660009054906101000a900473ffffffffffffffffffffffffffffffffffffffff16905081600660006101000a81548173ffffffffffffffffffffffffffffffffffffffff021916908373ffffffffffffffffffffffffffffffffffffffff1602179055508173ffffffffffffffffffffffffffffffffffffffff168173ffffffffffffffffffffffffffffffffffffffff167f8be0079c531659141344cd1fd0a4f28419497f9722a3daafe3b4186f6b6457e060405160405180910390a35050565b8280546200020790620002a9565b90600052602060002090601f0160209004810192826200022b576000855562000277565b82601f106200024657805160ff191683800117855562000277565b8280016001018555821562000277579182015b828111156200027657825182559160200191906001019062000259565b5b5090506200028691906200028a565b5090565b5b80821115620002a55760008160009055506001016200028b565b5090565b60006002820490506001821680620002c257607f821691505b60208210811415620002d957620002d8620002df565b5b50919050565b7f4e487b7100000000000000000000000000000000000000000000000000000000600052602260045260246000fd5b614735806200031e6000396000f3fe60806040526004361061014b5760003560e01c8063715018a6116100b6578063a22cb4651161006f578063a22cb46514610480578063b88d4fde146104a9578063c87b56dd146104d2578063dc15bddb1461050f578063e985e9c514610538578063f2fde38b146105755761014b565b8063715018a6146103a157806375d0c0dc146103b85780638da5cb5b146103e35780638fc59a8a1461040e578063931a889b1461042a57806395d89b41146104555761014b565b806342842e0e1161010857806342842e0e1461028c5780634ee1f16f146102b557806351ae6189146102e0578063606a01751461030b5780636352211e1461032757806370a08231146103645761014b565b806301ffc9a71461015057806306fdde031461018d578063081812fc146101b8578063095ea7b3146101f557806323b872dd1461021e578063304cff3014610247575b600080fd5b34801561015c57600080fd5b5061017760048036038101906101729190613220565b61059e565b6040516101849190613993565b60405180910390f35b34801561019957600080fd5b506101a2610680565b6040516101af91906139ae565b60405180910390f35b3480156101c457600080fd5b506101df60048036038101906101da9190613349565b610712565b6040516101ec91906138e1565b60405180910390f35b34801561020157600080fd5b5061021c600480360381019061021791906131e4565b610797565b005b34801561022a57600080fd5b50610245600480360381019061024091906130de565b6108af565b005b34801561025357600080fd5b5061026e60048036038101906102699190613349565b61090f565b60405161028399989796959493929190613cc5565b60405180910390f35b34801561029857600080fd5b506102b360048036038101906102ae91906130de565b610bbd565b005b3480156102c157600080fd5b506102ca610bdd565b6040516102d79190613971565b60405180910390f35b3480156102ec57600080fd5b506102f5611059565b6040516103029190613971565b60405180910390f35b61032560048036038101906103209190613349565b611503565b005b34801561033357600080fd5b5061034e60048036038101906103499190613349565b611773565b60405161035b91906138e1565b60405180910390f35b34801561037057600080fd5b5061038b60048036038101906103869190613079565b611825565b6040516103989190613c10565b60405180910390f35b3480156103ad57600080fd5b506103b66118dd565b005b3480156103c457600080fd5b506103cd611965565b6040516103da91906139ae565b60405180910390f35b3480156103ef57600080fd5b506103f86119f3565b60405161040591906138e1565b60405180910390f35b61042860048036038101906104239190613372565b611a1d565b005b34801561043657600080fd5b5061043f611b7a565b60405161044c9190613c10565b60405180910390f35b34801561046157600080fd5b5061046a611b80565b60405161047791906139ae565b60405180910390f35b34801561048c57600080fd5b506104a760048036038101906104a291906131a8565b611c12565b005b3480156104b557600080fd5b506104d060048036038101906104cb919061312d565b611c28565b005b3480156104de57600080fd5b506104f960048036038101906104f49190613349565b611c8a565b60405161050691906139ae565b60405180910390f35b34801561051b57600080fd5b5061053660048036038101906105319190613272565b611d31565b005b34801561054457600080fd5b5061055f600480360381019061055a91906130a2565b611fcc565b60405161056c9190613993565b60405180910390f35b34801561058157600080fd5b5061059c60048036038101906105979190613079565b612060565b005b60007f80ac58cd000000000000000000000000000000000000000000000000000000007bffffffffffffffffffffffffffffffffffffffffffffffffffffffff1916827bffffffffffffffffffffffffffffffffffffffffffffffffffffffff1916148061066957507f5b5e139f000000000000000000000000000000000000000000000000000000007bffffffffffffffffffffffffffffffffffffffffffffffffffffffff1916827bffffffffffffffffffffffffffffffffffffffffffffffffffffffff1916145b80610679575061067882612158565b5b9050919050565b60606000805461068f90614029565b80601f01602080910402602001604051908101604052809291908181526020018280546106bb90614029565b80156107085780601f106106dd57610100808354040283529160200191610708565b820191906000526020600020905b8154815290600101906020018083116106eb57829003601f168201915b5050505050905090565b600061071d826121c2565b61075c576040517f08c379a000000000000000000000000000000000000000000000000000000000815260040161075390613b70565b60405180910390fd5b6004600083815260200190815260200160002060009054906101000a900473ffffffffffffffffffffffffffffffffffffffff169050919050565b60006107a282611773565b90508073ffffffffffffffffffffffffffffffffffffffff168373ffffffffffffffffffffffffffffffffffffffff161415610813576040517f08c379a000000000000000000000000000000000000000000000000000000000815260040161080a90613bd0565b60405180910390fd5b8073ffffffffffffffffffffffffffffffffffffffff1661083261222e565b73ffffffffffffffffffffffffffffffffffffffff16148061086157506108608161085b61222e565b611fcc565b5b6108a0576040517f08c379a000000000000000000000000000000000000000000000000000000000815260040161089790613ad0565b60405180910390fd5b6108aa8383612236565b505050565b6108c06108ba61222e565b826122ef565b6108ff576040517f08c379a00000000000000000000000000000000000000000000000000000000081526004016108f690613bf0565b60405180910390fd5b61090a8383836123cd565b505050565b600960205280600052604060002060009150905080600001549080600101805461093890614029565b80601f016020809104026020016040519081016040528092919081815260200182805461096490614029565b80156109b15780601f10610986576101008083540402835291602001916109b1565b820191906000526020600020905b81548152906001019060200180831161099457829003601f168201915b5050505050908060020180546109c690614029565b80601f01602080910402602001604051908101604052809291908181526020018280546109f290614029565b8015610a3f5780601f10610a1457610100808354040283529160200191610a3f565b820191906000526020600020905b815481529060010190602001808311610a2257829003601f168201915b505050505090806003018054610a5490614029565b80601f0160208091040260200160405190810160405280929190818152602001828054610a8090614029565b8015610acd5780601f10610aa257610100808354040283529160200191610acd565b820191906000526020600020905b815481529060010190602001808311610ab057829003601f168201915b505050505090806004018054610ae290614029565b80601f0160208091040260200160405190810160405280929190818152602001828054610b0e90614029565b8015610b5b5780601f10610b3057610100808354040283529160200191610b5b565b820191906000526020600020905b815481529060010190602001808311610b3e57829003601f168201915b5050505050908060050160009054906101000a900473ffffffffffffffffffffffffffffffffffffffff16908060060160009054906101000a900473ffffffffffffffffffffffffffffffffffffffff16908060070154908060080154905089565b610bd883838360405180602001604052806000815250611c28565b505050565b60606000610bea33611825565b905060008167ffffffffffffffff811115610c2e577f4e487b7100000000000000000000000000000000000000000000000000000000600052604160045260246000fd5b604051908082528060200260200182016040528015610c6757816020015b610c54612e25565b815260200190600190039081610c4c5790505b509050600080600090505b60085481101561104f573373ffffffffffffffffffffffffffffffffffffffff16610c9c82611773565b73ffffffffffffffffffffffffffffffffffffffff16141561103c57600960008281526020019081526020016000206040518061012001604052908160008201548152602001600182018054610cf190614029565b80601f0160208091040260200160405190810160405280929190818152602001828054610d1d90614029565b8015610d6a5780601f10610d3f57610100808354040283529160200191610d6a565b820191906000526020600020905b815481529060010190602001808311610d4d57829003601f168201915b50505050508152602001600282018054610d8390614029565b80601f0160208091040260200160405190810160405280929190818152602001828054610daf90614029565b8015610dfc5780601f10610dd157610100808354040283529160200191610dfc565b820191906000526020600020905b815481529060010190602001808311610ddf57829003601f168201915b50505050508152602001600382018054610e1590614029565b80601f0160208091040260200160405190810160405280929190818152602001828054610e4190614029565b8015610e8e5780601f10610e6357610100808354040283529160200191610e8e565b820191906000526020600020905b815481529060010190602001808311610e7157829003601f168201915b50505050508152602001600482018054610ea790614029565b80601f0160208091040260200160405190810160405280929190818152602001828054610ed390614029565b8015610f205780601f10610ef557610100808354040283529160200191610f20565b820191906000526020600020905b815481529060010190602001808311610f0357829003601f168201915b505050505081526020016005820160009054906101000a900473ffffffffffffffffffffffffffffffffffffffff1673ffffffffffffffffffffffffffffffffffffffff1673ffffffffffffffffffffffffffffffffffffffff1681526020016006820160009054906101000a900473ffffffffffffffffffffffffffffffffffffffff1673ffffffffffffffffffffffffffffffffffffffff1673ffffffffffffffffffffffffffffffffffffffff16815260200160078201548152602001600882015481525050838381518110611022577f4e487b7100000000000000000000000000000000000000000000000000000000600052603260045260246000fd5b602002602001018190525081806110389061408c565b9250505b80806110479061408c565b915050610c72565b5081935050505090565b6060600061106630611825565b905060008167ffffffffffffffff8111156110aa577f4e487b7100000000000000000000000000000000000000000000000000000000600052604160045260246000fd5b6040519080825280602002602001820160405280156110e357816020015b6110d0612e25565b8152602001906001900390816110c85790505b509050600080600090505b6008548110156114f957600073ffffffffffffffffffffffffffffffffffffffff166009600083815260200190815260200160002060060160009054906101000a900473ffffffffffffffffffffffffffffffffffffffff1673ffffffffffffffffffffffffffffffffffffffff16146114e65760096000828152602001908152602001600020604051806101200160405290816000820154815260200160018201805461119b90614029565b80601f01602080910402602001604051908101604052809291908181526020018280546111c790614029565b80156112145780601f106111e957610100808354040283529160200191611214565b820191906000526020600020905b8154815290600101906020018083116111f757829003601f168201915b5050505050815260200160028201805461122d90614029565b80601f016020809104026020016040519081016040528092919081815260200182805461125990614029565b80156112a65780601f1061127b576101008083540402835291602001916112a6565b820191906000526020600020905b81548152906001019060200180831161128957829003601f168201915b505050505081526020016003820180546112bf90614029565b80601f01602080910402602001604051908101604052809291908181526020018280546112eb90614029565b80156113385780601f1061130d57610100808354040283529160200191611338565b820191906000526020600020905b81548152906001019060200180831161131b57829003601f168201915b5050505050815260200160048201805461135190614029565b80601f016020809104026020016040519081016040528092919081815260200182805461137d90614029565b80156113ca5780601f1061139f576101008083540402835291602001916113ca565b820191906000526020600020905b8154815290600101906020018083116113ad57829003601f168201915b505050505081526020016005820160009054906101000a900473ffffffffffffffffffffffffffffffffffffffff1673ffffffffffffffffffffffffffffffffffffffff1673ffffffffffffffffffffffffffffffffffffffff1681526020016006820160009054906101000a900473ffffffffffffffffffffffffffffffffffffffff1673ffffffffffffffffffffffffffffffffffffffff1673ffffffffffffffffffffffffffffffffffffffff168152602001600782015481526020016008820154815250508383815181106114cc577f4e487b7100000000000000000000000000000000000000000000000000000000600052603260045260246000fd5b602002602001018190525081806114e29061408c565b9250505b80806114f19061408c565b9150506110ee565b5081935050505090565b60006009600083815260200190815260200160002060070154905060006009600084815260200190815260200160002060080154905060006009600085815260200190815260200160002060060160009054906101000a900473ffffffffffffffffffffffffffffffffffffffff16905081836115809190613e82565b34146115c1576040517f08c379a00000000000000000000000000000000000000000000000000000000081526004016115b890613b50565b60405180910390fd5b6009600085815260200190815260200160002060050160009054906101000a900473ffffffffffffffffffffffffffffffffffffffff1673ffffffffffffffffffffffffffffffffffffffff166108fc839081150290604051600060405180830381858888f1935050505015801561163d573d6000803e3d6000fd5b508073ffffffffffffffffffffffffffffffffffffffff166108fc849081150290604051600060405180830381858888f19350505050158015611684573d6000803e3d6000fd5b506116903033866123cd565b60006009600086815260200190815260200160002060060160006101000a81548173ffffffffffffffffffffffffffffffffffffffff021916908373ffffffffffffffffffffffffffffffffffffffff1602179055506009600085815260200190815260200160002060060160009054906101000a900473ffffffffffffffffffffffffffffffffffffffff1673ffffffffffffffffffffffffffffffffffffffff16847fe13c3227f1ff521102c19443bdea721199aab002bbf3690a747db1834a1665b43386604051611765929190613948565b60405180910390a350505050565b6000806002600084815260200190815260200160002060009054906101000a900473ffffffffffffffffffffffffffffffffffffffff169050600073ffffffffffffffffffffffffffffffffffffffff168173ffffffffffffffffffffffffffffffffffffffff16141561181c576040517f08c379a000000000000000000000000000000000000000000000000000000000815260040161181390613b10565b60405180910390fd5b80915050919050565b60008073ffffffffffffffffffffffffffffffffffffffff168273ffffffffffffffffffffffffffffffffffffffff161415611896576040517f08c379a000000000000000000000000000000000000000000000000000000000815260040161188d90613af0565b60405180910390fd5b600360008373ffffffffffffffffffffffffffffffffffffffff1673ffffffffffffffffffffffffffffffffffffffff168152602001908152602001600020549050919050565b6118e561222e565b73ffffffffffffffffffffffffffffffffffffffff166119036119f3565b73ffffffffffffffffffffffffffffffffffffffff1614611959576040517f08c379a000000000000000000000000000000000000000000000000000000000815260040161195090613b90565b60405180910390fd5b6119636000612634565b565b6007805461197290614029565b80601f016020809104026020016040519081016040528092919081815260200182805461199e90614029565b80156119eb5780601f106119c0576101008083540402835291602001916119eb565b820191906000526020600020905b8154815290600101906020018083116119ce57829003601f168201915b505050505081565b6000600660009054906101000a900473ffffffffffffffffffffffffffffffffffffffff16905090565b60008111611a60576040517f08c379a0000000000000000000000000000000000000000000000000000000008152600401611a57906139d0565b60405180910390fd5b806009600084815260200190815260200160002060070181905550336009600084815260200190815260200160002060060160006101000a81548173ffffffffffffffffffffffffffffffffffffffff021916908373ffffffffffffffffffffffffffffffffffffffff160217905550611adb3330846123cd565b6009600083815260200190815260200160002060060160009054906101000a900473ffffffffffffffffffffffffffffffffffffffff1673ffffffffffffffffffffffffffffffffffffffff16827f44fb2d0ed29484bb8be1c909eaf6b608ad1dd38b93af7ed00fa6ce2b9b4f9a7b6009600086815260200190815260200160002060070154604051611b6e9190613c10565b60405180910390a35050565b60085481565b606060018054611b8f90614029565b80601f0160208091040260200160405190810160405280929190818152602001828054611bbb90614029565b8015611c085780601f10611bdd57610100808354040283529160200191611c08565b820191906000526020600020905b815481529060010190602001808311611beb57829003601f168201915b5050505050905090565b611c24611c1d61222e565b83836126fa565b5050565b611c39611c3361222e565b836122ef565b611c78576040517f08c379a0000000000000000000000000000000000000000000000000000000008152600401611c6f90613bf0565b60405180910390fd5b611c8484848484612867565b50505050565b6060611c95826121c2565b611cd4576040517f08c379a0000000000000000000000000000000000000000000000000000000008152600401611ccb90613bb0565b60405180910390fd5b6000611cde6128c3565b90506000815111611cfe5760405180602001604052806000815250611d29565b80611d08846128da565b604051602001611d199291906138bd565b6040516020818303038152906040525b915050919050565b6000835111611d3f57600080fd5b6000825111611d4d57600080fd5b6000855111611d5b57600080fd5b6000845111611d6957600080fd5b60008111611d7657600080fd5b600073ffffffffffffffffffffffffffffffffffffffff163373ffffffffffffffffffffffffffffffffffffffff161415611db057600080fd5b611dbc33600854612a87565b60405180610120016040528060085481526020018681526020018581526020018481526020018381526020013373ffffffffffffffffffffffffffffffffffffffff168152602001600073ffffffffffffffffffffffffffffffffffffffff1681526020016000815260200182815250600960006008548152602001908152602001600020600082015181600001556020820151816001019080519060200190611e67929190612e9d565b506040820151816002019080519060200190611e84929190612e9d565b506060820151816003019080519060200190611ea1929190612e9d565b506080820151816004019080519060200190611ebe929190612e9d565b5060a08201518160050160006101000a81548173ffffffffffffffffffffffffffffffffffffffff021916908373ffffffffffffffffffffffffffffffffffffffff16021790555060c08201518160060160006101000a81548173ffffffffffffffffffffffffffffffffffffffff021916908373ffffffffffffffffffffffffffffffffffffffff16021790555060e0820151816007015561010082015181600801559050507fa154722df996db521ce1a20d1f22321b166d9c487cdbd84247dbcc55dceba2e16008548686868633600088604051611fa5989796959493929190613c2b565b60405180910390a160086000815480929190611fc09061408c565b91905055505050505050565b6000600560008473ffffffffffffffffffffffffffffffffffffffff1673ffffffffffffffffffffffffffffffffffffffff16815260200190815260200160002060008373ffffffffffffffffffffffffffffffffffffffff1673ffffffffffffffffffffffffffffffffffffffff16815260200190815260200160002060009054906101000a900460ff16905092915050565b61206861222e565b73ffffffffffffffffffffffffffffffffffffffff166120866119f3565b73ffffffffffffffffffffffffffffffffffffffff16146120dc576040517f08c379a00000000000000000000000000000000000000000000000000000000081526004016120d390613b90565b60405180910390fd5b600073ffffffffffffffffffffffffffffffffffffffff168173ffffffffffffffffffffffffffffffffffffffff16141561214c576040517f08c379a000000000000000000000000000000000000000000000000000000000815260040161214390613a10565b60405180910390fd5b61215581612634565b50565b60007f01ffc9a7000000000000000000000000000000000000000000000000000000007bffffffffffffffffffffffffffffffffffffffffffffffffffffffff1916827bffffffffffffffffffffffffffffffffffffffffffffffffffffffff1916149050919050565b60008073ffffffffffffffffffffffffffffffffffffffff166002600084815260200190815260200160002060009054906101000a900473ffffffffffffffffffffffffffffffffffffffff1673ffffffffffffffffffffffffffffffffffffffff1614159050919050565b600033905090565b816004600083815260200190815260200160002060006101000a81548173ffffffffffffffffffffffffffffffffffffffff021916908373ffffffffffffffffffffffffffffffffffffffff160217905550808273ffffffffffffffffffffffffffffffffffffffff166122a983611773565b73ffffffffffffffffffffffffffffffffffffffff167f8c5be1e5ebec7d5bd14f71427d1e84f3dd0314c0f7b2291e5b200ac8c7c3b92560405160405180910390a45050565b60006122fa826121c2565b612339576040517f08c379a000000000000000000000000000000000000000000000000000000000815260040161233090613ab0565b60405180910390fd5b600061234483611773565b90508073ffffffffffffffffffffffffffffffffffffffff168473ffffffffffffffffffffffffffffffffffffffff16148061238657506123858185611fcc565b5b806123c457508373ffffffffffffffffffffffffffffffffffffffff166123ac84610712565b73ffffffffffffffffffffffffffffffffffffffff16145b91505092915050565b8273ffffffffffffffffffffffffffffffffffffffff166123ed82611773565b73ffffffffffffffffffffffffffffffffffffffff1614612443576040517f08c379a000000000000000000000000000000000000000000000000000000000815260040161243a90613a30565b60405180910390fd5b600073ffffffffffffffffffffffffffffffffffffffff168273ffffffffffffffffffffffffffffffffffffffff1614156124b3576040517f08c379a00000000000000000000000000000000000000000000000000000000081526004016124aa90613a70565b60405180910390fd5b6124be838383612c61565b6124c9600082612236565b6001600360008573ffffffffffffffffffffffffffffffffffffffff1673ffffffffffffffffffffffffffffffffffffffff16815260200190815260200160002060008282546125199190613f09565b925050819055506001600360008473ffffffffffffffffffffffffffffffffffffffff1673ffffffffffffffffffffffffffffffffffffffff16815260200190815260200160002060008282546125709190613e82565b92505081905550816002600083815260200190815260200160002060006101000a81548173ffffffffffffffffffffffffffffffffffffffff021916908373ffffffffffffffffffffffffffffffffffffffff160217905550808273ffffffffffffffffffffffffffffffffffffffff168473ffffffffffffffffffffffffffffffffffffffff167fddf252ad1be2c89b69c2b068fc378daa952ba7f163c4a11628f55a4df523b3ef60405160405180910390a461262f838383612c66565b505050565b6000600660009054906101000a900473ffffffffffffffffffffffffffffffffffffffff16905081600660006101000a81548173ffffffffffffffffffffffffffffffffffffffff021916908373ffffffffffffffffffffffffffffffffffffffff1602179055508173ffffffffffffffffffffffffffffffffffffffff168173ffffffffffffffffffffffffffffffffffffffff167f8be0079c531659141344cd1fd0a4f28419497f9722a3daafe3b4186f6b6457e060405160405180910390a35050565b8173ffffffffffffffffffffffffffffffffffffffff168373ffffffffffffffffffffffffffffffffffffffff161415612769576040517f08c379a000000000000000000000000000000000000000000000000000000000815260040161276090613a90565b60405180910390fd5b80600560008573ffffffffffffffffffffffffffffffffffffffff1673ffffffffffffffffffffffffffffffffffffffff16815260200190815260200160002060008473ffffffffffffffffffffffffffffffffffffffff1673ffffffffffffffffffffffffffffffffffffffff16815260200190815260200160002060006101000a81548160ff0219169083151502179055508173ffffffffffffffffffffffffffffffffffffffff168373ffffffffffffffffffffffffffffffffffffffff167f17307eab39ab6107e8899845ad3d59bd9653f200f220920489ca2b5937696c318360405161285a9190613993565b60405180910390a3505050565b6128728484846123cd565b61287e84848484612c6b565b6128bd576040517f08c379a00000000000000000000000000000000000000000000000000000000081526004016128b4906139f0565b60405180910390fd5b50505050565b606060405180602001604052806000815250905090565b60606000821415612922576040518060400160405280600181526020017f30000000000000000000000000000000000000000000000000000000000000008152509050612a82565b600082905060005b6000821461295457808061293d9061408c565b915050600a8261294d9190613ed8565b915061292a565b60008167ffffffffffffffff811115612996577f4e487b7100000000000000000000000000000000000000000000000000000000600052604160045260246000fd5b6040519080825280601f01601f1916602001820160405280156129c85781602001600182028036833780820191505090505b5090505b60008514612a7b576001826129e19190613f09565b9150600a856129f091906140d5565b60306129fc9190613e82565b60f81b818381518110612a38577f4e487b7100000000000000000000000000000000000000000000000000000000600052603260045260246000fd5b60200101907effffffffffffffffffffffffffffffffffffffffffffffffffffffffffffff1916908160001a905350600a85612a749190613ed8565b94506129cc565b8093505050505b919050565b600073ffffffffffffffffffffffffffffffffffffffff168273ffffffffffffffffffffffffffffffffffffffff161415612af7576040517f08c379a0000000000000000000000000000000000000000000000000000000008152600401612aee90613b30565b60405180910390fd5b612b00816121c2565b15612b40576040517f08c379a0000000000000000000000000000000000000000000000000000000008152600401612b3790613a50565b60405180910390fd5b612b4c60008383612c61565b6001600360008473ffffffffffffffffffffffffffffffffffffffff1673ffffffffffffffffffffffffffffffffffffffff1681526020019081526020016000206000828254612b9c9190613e82565b92505081905550816002600083815260200190815260200160002060006101000a81548173ffffffffffffffffffffffffffffffffffffffff021916908373ffffffffffffffffffffffffffffffffffffffff160217905550808273ffffffffffffffffffffffffffffffffffffffff16600073ffffffffffffffffffffffffffffffffffffffff167fddf252ad1be2c89b69c2b068fc378daa952ba7f163c4a11628f55a4df523b3ef60405160405180910390a4612c5d60008383612c66565b5050565b505050565b505050565b6000612c8c8473ffffffffffffffffffffffffffffffffffffffff16612e02565b15612df5578373ffffffffffffffffffffffffffffffffffffffff1663150b7a02612cb561222e565b8786866040518563ffffffff1660e01b8152600401612cd794939291906138fc565b602060405180830381600087803b158015612cf157600080fd5b505af1925050508015612d2257506040513d601f19601f82011682018060405250810190612d1f9190613249565b60015b612da5573d8060008114612d52576040519150601f19603f3d011682016040523d82523d6000602084013e612d57565b606091505b50600081511415612d9d576040517f08c379a0000000000000000000000000000000000000000000000000000000008152600401612d94906139f0565b60405180910390fd5b805181602001fd5b63150b7a0260e01b7bffffffffffffffffffffffffffffffffffffffffffffffffffffffff1916817bffffffffffffffffffffffffffffffffffffffffffffffffffffffff191614915050612dfa565b600190505b949350505050565b6000808273ffffffffffffffffffffffffffffffffffffffff163b119050919050565b6040518061012001604052806000815260200160608152602001606081526020016060815260200160608152602001600073ffffffffffffffffffffffffffffffffffffffff168152602001600073ffffffffffffffffffffffffffffffffffffffff16815260200160008152602001600081525090565b828054612ea990614029565b90600052602060002090601f016020900481019282612ecb5760008555612f12565b82601f10612ee457805160ff1916838001178555612f12565b82800160010185558215612f12579182015b82811115612f11578251825591602001919060010190612ef6565b5b509050612f1f9190612f23565b5090565b5b80821115612f3c576000816000905550600101612f24565b5090565b6000612f53612f4e84613d93565b613d6e565b905082815260208101848484011115612f6b57600080fd5b612f76848285613fe7565b509392505050565b6000612f91612f8c84613dc4565b613d6e565b905082815260208101848484011115612fa957600080fd5b612fb4848285613fe7565b509392505050565b600081359050612fcb816146a3565b92915050565b600081359050612fe0816146ba565b92915050565b600081359050612ff5816146d1565b92915050565b60008151905061300a816146d1565b92915050565b600082601f83011261302157600080fd5b8135613031848260208601612f40565b91505092915050565b600082601f83011261304b57600080fd5b813561305b848260208601612f7e565b91505092915050565b600081359050613073816146e8565b92915050565b60006020828403121561308b57600080fd5b600061309984828501612fbc565b91505092915050565b600080604083850312156130b557600080fd5b60006130c385828601612fbc565b92505060206130d485828601612fbc565b9150509250929050565b6000806000606084860312156130f357600080fd5b600061310186828701612fbc565b935050602061311286828701612fbc565b925050604061312386828701613064565b9150509250925092565b6000806000806080858703121561314357600080fd5b600061315187828801612fbc565b945050602061316287828801612fbc565b935050604061317387828801613064565b925050606085013567ffffffffffffffff81111561319057600080fd5b61319c87828801613010565b91505092959194509250565b600080604083850312156131bb57600080fd5b60006131c985828601612fbc565b92505060206131da85828601612fd1565b9150509250929050565b600080604083850312156131f757600080fd5b600061320585828601612fbc565b925050602061321685828601613064565b9150509250929050565b60006020828403121561323257600080fd5b600061324084828501612fe6565b91505092915050565b60006020828403121561325b57600080fd5b600061326984828501612ffb565b91505092915050565b600080600080600060a0868803121561328a57600080fd5b600086013567ffffffffffffffff8111156132a457600080fd5b6132b08882890161303a565b955050602086013567ffffffffffffffff8111156132cd57600080fd5b6132d98882890161303a565b945050604086013567ffffffffffffffff8111156132f657600080fd5b6133028882890161303a565b935050606086013567ffffffffffffffff81111561331f57600080fd5b61332b8882890161303a565b925050608061333c88828901613064565b9150509295509295909350565b60006020828403121561335b57600080fd5b600061336984828501613064565b91505092915050565b6000806040838503121561338557600080fd5b600061339385828601613064565b92505060206133a485828601613064565b9150509250929050565b60006133ba83836137c5565b905092915050565b6133cb81613fb1565b82525050565b6133da81613f3d565b82525050565b6133e981613f3d565b82525050565b60006133fa82613e05565b6134048185613e33565b93508360208202850161341685613df5565b8060005b85811015613452578484038952815161343385826133ae565b945061343e83613e26565b925060208a0199505060018101905061341a565b50829750879550505050505092915050565b61346d81613f4f565b82525050565b600061347e82613e10565b6134888185613e44565b9350613498818560208601613ff6565b6134a1816141c2565b840191505092915050565b60006134b782613e1b565b6134c18185613e55565b93506134d1818560208601613ff6565b6134da816141c2565b840191505092915050565b60006134f082613e1b565b6134fa8185613e66565b935061350a818560208601613ff6565b613513816141c2565b840191505092915050565b600061352982613e1b565b6135338185613e77565b9350613543818560208601613ff6565b80840191505092915050565b600061355c601f83613e66565b9150613567826141d3565b602082019050919050565b600061357f603283613e66565b915061358a826141fc565b604082019050919050565b60006135a2602683613e66565b91506135ad8261424b565b604082019050919050565b60006135c5602583613e66565b91506135d08261429a565b604082019050919050565b60006135e8601c83613e66565b91506135f3826142e9565b602082019050919050565b600061360b602483613e66565b915061361682614312565b604082019050919050565b600061362e601983613e66565b915061363982614361565b602082019050919050565b6000613651602c83613e66565b915061365c8261438a565b604082019050919050565b6000613674603883613e66565b915061367f826143d9565b604082019050919050565b6000613697602a83613e66565b91506136a282614428565b604082019050919050565b60006136ba602983613e66565b91506136c582614477565b604082019050919050565b60006136dd602083613e66565b91506136e8826144c6565b602082019050919050565b6000613700603e83613e66565b915061370b826144ef565b604082019050919050565b6000613723602c83613e66565b915061372e8261453e565b604082019050919050565b6000613746602083613e66565b91506137518261458d565b602082019050919050565b6000613769602f83613e66565b9150613774826145b6565b604082019050919050565b600061378c602183613e66565b915061379782614605565b604082019050919050565b60006137af603183613e66565b91506137ba82614654565b604082019050919050565b6000610120830160008301516137de600086018261389f565b50602083015184820360208601526137f682826134ac565b9150506040830151848203604086015261381082826134ac565b9150506060830151848203606086015261382a82826134ac565b9150506080830151848203608086015261384482826134ac565b91505060a083015161385960a08601826133d1565b5060c083015161386c60c08601826133d1565b5060e083015161387f60e086018261389f565b5061010083015161389461010086018261389f565b508091505092915050565b6138a881613fa7565b82525050565b6138b781613fa7565b82525050565b60006138c9828561351e565b91506138d5828461351e565b91508190509392505050565b60006020820190506138f660008301846133e0565b92915050565b600060808201905061391160008301876133e0565b61391e60208301866133e0565b61392b60408301856138ae565b818103606083015261393d8184613473565b905095945050505050565b600060408201905061395d60008301856133e0565b61396a60208301846138ae565b9392505050565b6000602082019050818103600083015261398b81846133ef565b905092915050565b60006020820190506139a86000830184613464565b92915050565b600060208201905081810360008301526139c881846134e5565b905092915050565b600060208201905081810360008301526139e98161354f565b9050919050565b60006020820190508181036000830152613a0981613572565b9050919050565b60006020820190508181036000830152613a2981613595565b9050919050565b60006020820190508181036000830152613a49816135b8565b9050919050565b60006020820190508181036000830152613a69816135db565b9050919050565b60006020820190508181036000830152613a89816135fe565b9050919050565b60006020820190508181036000830152613aa981613621565b9050919050565b60006020820190508181036000830152613ac981613644565b9050919050565b60006020820190508181036000830152613ae981613667565b9050919050565b60006020820190508181036000830152613b098161368a565b9050919050565b60006020820190508181036000830152613b29816136ad565b9050919050565b60006020820190508181036000830152613b49816136d0565b9050919050565b60006020820190508181036000830152613b69816136f3565b9050919050565b60006020820190508181036000830152613b8981613716565b9050919050565b60006020820190508181036000830152613ba981613739565b9050919050565b60006020820190508181036000830152613bc98161375c565b9050919050565b60006020820190508181036000830152613be98161377f565b9050919050565b60006020820190508181036000830152613c09816137a2565b9050919050565b6000602082019050613c2560008301846138ae565b92915050565b600061010082019050613c41600083018b6138ae565b8181036020830152613c53818a6134e5565b90508181036040830152613c6781896134e5565b90508181036060830152613c7b81886134e5565b90508181036080830152613c8f81876134e5565b9050613c9e60a08301866133e0565b613cab60c08301856133c2565b613cb860e08301846138ae565b9998505050505050505050565b600061012082019050613cdb600083018c6138ae565b8181036020830152613ced818b6134e5565b90508181036040830152613d01818a6134e5565b90508181036060830152613d1581896134e5565b90508181036080830152613d2981886134e5565b9050613d3860a08301876133e0565b613d4560c08301866133e0565b613d5260e08301856138ae565b613d606101008301846138ae565b9a9950505050505050505050565b6000613d78613d89565b9050613d84828261405b565b919050565b6000604051905090565b600067ffffffffffffffff821115613dae57613dad614193565b5b613db7826141c2565b9050602081019050919050565b600067ffffffffffffffff821115613ddf57613dde614193565b5b613de8826141c2565b9050602081019050919050565b6000819050602082019050919050565b600081519050919050565b600081519050919050565b600081519050919050565b6000602082019050919050565b600082825260208201905092915050565b600082825260208201905092915050565b600082825260208201905092915050565b600082825260208201905092915050565b600081905092915050565b6000613e8d82613fa7565b9150613e9883613fa7565b9250827fffffffffffffffffffffffffffffffffffffffffffffffffffffffffffffffff03821115613ecd57613ecc614106565b5b828201905092915050565b6000613ee382613fa7565b9150613eee83613fa7565b925082613efe57613efd614135565b5b828204905092915050565b6000613f1482613fa7565b9150613f1f83613fa7565b925082821015613f3257613f31614106565b5b828203905092915050565b6000613f4882613f87565b9050919050565b60008115159050919050565b60007fffffffff0000000000000000000000000000000000000000000000000000000082169050919050565b600073ffffffffffffffffffffffffffffffffffffffff82169050919050565b6000819050919050565b6000613fbc82613fc3565b9050919050565b6000613fce82613fd5565b9050919050565b6000613fe082613f87565b9050919050565b82818337600083830152505050565b60005b83811015614014578082015181840152602081019050613ff9565b83811115614023576000848401525b50505050565b6000600282049050600182168061404157607f821691505b6020821081141561405557614054614164565b5b50919050565b614064826141c2565b810181811067ffffffffffffffff8211171561408357614082614193565b5b80604052505050565b600061409782613fa7565b91507fffffffffffffffffffffffffffffffffffffffffffffffffffffffffffffffff8214156140ca576140c9614106565b5b600182019050919050565b60006140e082613fa7565b91506140eb83613fa7565b9250826140fb576140fa614135565b5b828206905092915050565b7f4e487b7100000000000000000000000000000000000000000000000000000000600052601160045260246000fd5b7f4e487b7100000000000000000000000000000000000000000000000000000000600052601260045260246000fd5b7f4e487b7100000000000000000000000000000000000000000000000000000000600052602260045260246000fd5b7f4e487b7100000000000000000000000000000000000000000000000000000000600052604160045260246000fd5b6000601f19601f8301169050919050565b7f5072696365206d7573742062652067726561746572207468616e207a65726f00600082015250565b7f4552433732313a207472616e7366657220746f206e6f6e20455243373231526560008201527f63656976657220696d706c656d656e7465720000000000000000000000000000602082015250565b7f4f776e61626c653a206e6577206f776e657220697320746865207a65726f206160008201527f6464726573730000000000000000000000000000000000000000000000000000602082015250565b7f4552433732313a207472616e736665722066726f6d20696e636f72726563742060008201527f6f776e6572000000000000000000000000000000000000000000000000000000602082015250565b7f4552433732313a20746f6b656e20616c7265616479206d696e74656400000000600082015250565b7f4552433732313a207472616e7366657220746f20746865207a65726f2061646460008201527f7265737300000000000000000000000000000000000000000000000000000000602082015250565b7f4552433732313a20617070726f766520746f2063616c6c657200000000000000600082015250565b7f4552433732313a206f70657261746f7220717565727920666f72206e6f6e657860008201527f697374656e7420746f6b656e0000000000000000000000000000000000000000602082015250565b7f4552433732313a20617070726f76652063616c6c6572206973206e6f74206f7760008201527f6e6572206e6f7220617070726f76656420666f7220616c6c0000000000000000602082015250565b7f4552433732313a2062616c616e636520717565727920666f7220746865207a6560008201527f726f206164647265737300000000000000000000000000000000000000000000602082015250565b7f4552433732313a206f776e657220717565727920666f72206e6f6e657869737460008201527f656e7420746f6b656e0000000000000000000000000000000000000000000000602082015250565b7f4552433732313a206d696e7420746f20746865207a65726f2061646472657373600082015250565b7f506c656173652073656e64207468652061736b696e6720707269636520696e2060008201527f6f7264657220746f20636f6d706c657465207468652070757263686173650000602082015250565b7f4552433732313a20617070726f76656420717565727920666f72206e6f6e657860008201527f697374656e7420746f6b656e0000000000000000000000000000000000000000602082015250565b7f4f776e61626c653a2063616c6c6572206973206e6f7420746865206f776e6572600082015250565b7f4552433732314d657461646174613a2055524920717565727920666f72206e6f60008201527f6e6578697374656e7420746f6b656e0000000000000000000000000000000000602082015250565b7f4552433732313a20617070726f76616c20746f2063757272656e74206f776e6560008201527f7200000000000000000000000000000000000000000000000000000000000000602082015250565b7f4552433732313a207472616e736665722063616c6c6572206973206e6f74206f60008201527f776e6572206e6f7220617070726f766564000000000000000000000000000000602082015250565b6146ac81613f3d565b81146146b757600080fd5b50565b6146c381613f4f565b81146146ce57600080fd5b50565b6146da81613f5b565b81146146e557600080fd5b50565b6146f181613fa7565b81146146fc57600080fd5b5056fea26469706673582212202a2631fa82f186d90fdce394df412f3ca70ac0e936b246663578e010acb45b8864736f6c63430008040033",
  "linkReferences": {},
  "deployedLinkReferences": {}
}